{
  "_format": "hh-sol-artifact-1",
  "contractName": "CarRental",
  "sourceName": "contracts/CarRental.sol",
  "abi": [
    {
      "anonymous": false,
      "inputs": [
        {
          "indexed": true,
          "internalType": "uint256",
          "name": "carId",
          "type": "uint256"
        },
        {
          "indexed": true,
          "internalType": "address",
          "name": "owner",
          "type": "address"
        }
      ],
      "name": "CarRegistered",
      "type": "event"
    },
    {
      "anonymous": false,
      "inputs": [
        {
          "indexed": true,
          "internalType": "uint256",
          "name": "carId",
          "type": "uint256"
        },
        {
          "indexed": true,
          "internalType": "address",
          "name": "renter",
          "type": "address"
        },
        {
          "indexed": false,
          "internalType": "uint256",
          "name": "startDate",
          "type": "uint256"
        },
        {
          "indexed": false,
          "internalType": "uint256",
          "name": "endDate",
          "type": "uint256"
        },
        {
          "indexed": false,
          "internalType": "uint256",
          "name": "paid",
          "type": "uint256"
        }
      ],
      "name": "CarRented",
      "type": "event"
    },
    {
      "anonymous": false,
      "inputs": [
        {
          "indexed": true,
          "internalType": "uint256",
          "name": "carId",
          "type": "uint256"
        }
      ],
      "name": "CarUnavailable",
      "type": "event"
    },
    {
      "anonymous": false,
      "inputs": [
        {
          "indexed": true,
          "internalType": "uint256",
          "name": "carId",
          "type": "uint256"
        }
      ],
      "name": "CarUpdated",
      "type": "event"
    },
    {
      "anonymous": false,
      "inputs": [
        {
          "indexed": true,
          "internalType": "uint256",
          "name": "carId",
          "type": "uint256"
        },
        {
          "indexed": true,
          "internalType": "address",
          "name": "renter",
          "type": "address"
        },
        {
          "indexed": false,
          "internalType": "uint256",
          "name": "refunded",
          "type": "uint256"
        }
      ],
      "name": "RentalCancelled",
      "type": "event"
    },
    {
      "anonymous": false,
      "inputs": [
        {
          "indexed": true,
          "internalType": "uint256",
          "name": "carId",
          "type": "uint256"
        }
      ],
      "name": "RentalEnded",
      "type": "event"
    },
    {
      "inputs": [
        {
          "internalType": "uint256",
          "name": "",
          "type": "uint256"
        }
      ],
      "name": "activeRental",
      "outputs": [
        {
          "internalType": "uint256",
          "name": "carId",
          "type": "uint256"
        },
        {
          "internalType": "address",
          "name": "renter",
          "type": "address"
        },
        {
          "internalType": "uint256",
          "name": "startDate",
          "type": "uint256"
        },
        {
          "internalType": "uint256",
          "name": "endDate",
          "type": "uint256"
        },
        {
          "internalType": "uint256",
          "name": "paid",
          "type": "uint256"
        },
        {
          "internalType": "bool",
          "name": "active",
          "type": "bool"
        }
      ],
      "stateMutability": "view",
      "type": "function"
    },
    {
      "inputs": [
        {
          "internalType": "uint256",
          "name": "_carId",
          "type": "uint256"
        }
      ],
      "name": "cancelRental",
      "outputs": [],
      "stateMutability": "nonpayable",
      "type": "function"
    },
    {
      "inputs": [],
      "name": "carCount",
      "outputs": [
        {
          "internalType": "uint256",
          "name": "",
          "type": "uint256"
        }
      ],
      "stateMutability": "view",
      "type": "function"
    },
    {
      "inputs": [
        {
          "internalType": "uint256",
          "name": "",
          "type": "uint256"
        }
      ],
      "name": "cars",
      "outputs": [
        {
          "internalType": "uint256",
          "name": "id",
          "type": "uint256"
        },
        {
          "internalType": "address",
          "name": "owner",
          "type": "address"
        },
        {
          "internalType": "string",
          "name": "model",
          "type": "string"
        },
        {
          "internalType": "string",
          "name": "pickupLocation",
          "type": "string"
        },
        {
          "internalType": "uint256",
          "name": "pricePerDay",
          "type": "uint256"
        },
        {
          "internalType": "enum CarRental.CarStatus",
          "name": "status",
          "type": "uint8"
        },
        {
          "internalType": "uint256",
          "name": "earnings",
          "type": "uint256"
        }
      ],
      "stateMutability": "view",
      "type": "function"
    },
    {
      "inputs": [
        {
          "internalType": "uint256",
          "name": "_carId",
          "type": "uint256"
        }
      ],
      "name": "endRental",
      "outputs": [],
      "stateMutability": "nonpayable",
      "type": "function"
    },
    {
      "inputs": [
        {
          "internalType": "address",
          "name": "user",
          "type": "address"
        }
      ],
      "name": "getOwnerHistory",
      "outputs": [
        {
          "components": [
            {
              "internalType": "uint256",
              "name": "carId",
              "type": "uint256"
            },
            {
              "internalType": "address",
              "name": "renter",
              "type": "address"
            },
            {
              "internalType": "uint256",
              "name": "startDate",
              "type": "uint256"
            },
            {
              "internalType": "uint256",
              "name": "endDate",
              "type": "uint256"
            },
            {
              "internalType": "uint256",
              "name": "paid",
              "type": "uint256"
            },
            {
              "internalType": "bool",
              "name": "active",
              "type": "bool"
            }
          ],
          "internalType": "struct CarRental.Rental[]",
          "name": "",
          "type": "tuple[]"
        }
      ],
      "stateMutability": "view",
      "type": "function"
    },
    {
      "inputs": [
        {
          "internalType": "address",
          "name": "user",
          "type": "address"
        }
      ],
      "name": "getRenterHistory",
      "outputs": [
        {
          "components": [
            {
              "internalType": "uint256",
              "name": "carId",
              "type": "uint256"
            },
            {
              "internalType": "address",
              "name": "renter",
              "type": "address"
            },
            {
              "internalType": "uint256",
              "name": "startDate",
              "type": "uint256"
            },
            {
              "internalType": "uint256",
              "name": "endDate",
              "type": "uint256"
            },
            {
              "internalType": "uint256",
              "name": "paid",
              "type": "uint256"
            },
            {
              "internalType": "bool",
              "name": "active",
              "type": "bool"
            }
          ],
          "internalType": "struct CarRental.Rental[]",
          "name": "",
          "type": "tuple[]"
        }
      ],
      "stateMutability": "view",
      "type": "function"
    },
    {
      "inputs": [
        {
          "internalType": "string",
          "name": "_model",
          "type": "string"
        },
        {
          "internalType": "string",
          "name": "_pickupLocation",
          "type": "string"
        },
        {
          "internalType": "uint256",
          "name": "_pricePerDay",
          "type": "uint256"
        }
      ],
      "name": "registerCar",
      "outputs": [],
      "stateMutability": "nonpayable",
      "type": "function"
    },
    {
      "inputs": [
        {
          "internalType": "uint256",
          "name": "_carId",
          "type": "uint256"
        },
        {
          "internalType": "uint256",
          "name": "_startDate",
          "type": "uint256"
        },
        {
          "internalType": "uint256",
          "name": "_endDate",
          "type": "uint256"
        }
      ],
      "name": "rentCar",
      "outputs": [],
      "stateMutability": "payable",
      "type": "function"
    },
    {
      "inputs": [
        {
          "internalType": "uint256",
          "name": "_carId",
          "type": "uint256"
        }
      ],
      "name": "setCarUnavailable",
      "outputs": [],
      "stateMutability": "nonpayable",
      "type": "function"
    },
    {
      "inputs": [
        {
          "internalType": "uint256",
          "name": "_carId",
          "type": "uint256"
        },
        {
          "internalType": "string",
          "name": "_pickupLocation",
          "type": "string"
        },
        {
          "internalType": "uint256",
          "name": "_pricePerDay",
          "type": "uint256"
        }
      ],
      "name": "updateCarDetails",
      "outputs": [],
      "stateMutability": "nonpayable",
      "type": "function"
    }
  ],
  "bytecode": "0x608060405234801561001057600080fd5b50612787806100206000396000f3fe60806040526004361061009c5760003560e01c80636340583211610064578063634058321461017c578063968abad9146101a557806397491d6f146101ce57806397ce99df146101f7578063b76963f114610234578063f7746e36146102715761009c565b8063297a1f56146100a15780632f792339146100cc5780634192440d146100f557806346b516ea146101115780635e0dacb414610153575b600080fd5b3480156100ad57600080fd5b506100b66102b4565b6040516100c3919061168e565b60405180910390f35b3480156100d857600080fd5b506100f360048036038101906100ee919061182f565b6102ba565b005b61010f600480360381019061010a91906118ba565b610496565b005b34801561011d57600080fd5b506101386004803603810190610133919061190d565b610a35565b60405161014a96959493929190611996565b60405180910390f35b34801561015f57600080fd5b5061017a6004803603810190610175919061190d565b610a9e565b005b34801561018857600080fd5b506101a3600480360381019061019e91906119f7565b610d5c565b005b3480156101b157600080fd5b506101cc60048036038101906101c7919061190d565b610f0e565b005b3480156101da57600080fd5b506101f560048036038101906101f0919061190d565b61108d565b005b34801561020357600080fd5b5061021e60048036038101906102199190611a92565b611288565b60405161022b9190611c16565b60405180910390f35b34801561024057600080fd5b5061025b60048036038101906102569190611a92565b6113bf565b6040516102689190611c16565b60405180910390f35b34801561027d57600080fd5b506102986004803603810190610293919061190d565b6114f6565b6040516102ab9796959493929190611d2e565b60405180910390f35b60005481565b600081116102fd576040517f08c379a00000000000000000000000000000000000000000000000000000000081526004016102f490611df7565b60405180910390fd5b60008081548092919061030f90611e46565b91905055506040518060e0016040528060005481526020013373ffffffffffffffffffffffffffffffffffffffff1681526020018481526020018381526020018281526020016000600281111561036957610368611cb7565b5b8152602001600081525060016000805481526020019081526020016000206000820151816000015560208201518160010160006101000a81548173ffffffffffffffffffffffffffffffffffffffff021916908373ffffffffffffffffffffffffffffffffffffffff16021790555060408201518160020190816103ed919061209a565b506060820151816003019081610403919061209a565b506080820151816004015560a08201518160050160006101000a81548160ff0219169083600281111561043957610438611cb7565b5b021790555060c082015181600601559050503373ffffffffffffffffffffffffffffffffffffffff166000547f459e1abea8d58f1f390ad63904970bc184e7e026ff12f2f7f3c3aed6677ad18760405160405180910390a3505050565b6000600160008581526020019081526020016000209050600060028111156104c1576104c0611cb7565b5b8160050160009054906101000a900460ff1660028111156104e5576104e4611cb7565b5b14610525576040517f08c379a000000000000000000000000000000000000000000000000000000000815260040161051c906121b8565b60405180910390fd5b828211610567576040517f08c379a000000000000000000000000000000000000000000000000000000000815260040161055e90612224565b60405180910390fd5b60006201518084846105799190612244565b61058391906122a7565b9050600081116105c8576040517f08c379a00000000000000000000000000000000000000000000000000000000081526004016105bf90612324565b60405180910390fd5b60008260040154826105da9190612344565b905080341461061e576040517f08c379a0000000000000000000000000000000000000000000000000000000008152600401610615906123d2565b60405180910390fd5b60018360050160006101000a81548160ff0219169083600281111561064657610645611cb7565b5b02179055503483600601600082825461065f91906123f2565b9250508190555060006040518060c001604052808881526020013373ffffffffffffffffffffffffffffffffffffffff16815260200187815260200186815260200134815260200160011515815250905080600260008981526020019081526020016000206000820151816000015560208201518160010160006101000a81548173ffffffffffffffffffffffffffffffffffffffff021916908373ffffffffffffffffffffffffffffffffffffffff16021790555060408201518160020155606082015181600301556080820151816004015560a08201518160050160006101000a81548160ff021916908315150217905550905050600360003373ffffffffffffffffffffffffffffffffffffffff1673ffffffffffffffffffffffffffffffffffffffff1681526020019081526020016000208190806001815401808255809150506001900390600052602060002090600602016000909190919091506000820151816000015560208201518160010160006101000a81548173ffffffffffffffffffffffffffffffffffffffff021916908373ffffffffffffffffffffffffffffffffffffffff16021790555060408201518160020155606082015181600301556080820151816004015560a08201518160050160006101000a81548160ff0219169083151502179055505050600460008560010160009054906101000a900473ffffffffffffffffffffffffffffffffffffffff1673ffffffffffffffffffffffffffffffffffffffff1673ffffffffffffffffffffffffffffffffffffffff1681526020019081526020016000208190806001815401808255809150506001900390600052602060002090600602016000909190919091506000820151816000015560208201518160010160006101000a81548173ffffffffffffffffffffffffffffffffffffffff021916908373ffffffffffffffffffffffffffffffffffffffff16021790555060408201518160020155606082015181600301556080820151816004015560a08201518160050160006101000a81548160ff02191690831515021790555050508360010160009054906101000a900473ffffffffffffffffffffffffffffffffffffffff1673ffffffffffffffffffffffffffffffffffffffff166108fc349081150290604051600060405180830381858888f193505050501580156109d8573d6000803e3d6000fd5b503373ffffffffffffffffffffffffffffffffffffffff16877fe1e862fec8fa1927775190a10702820a777d0b1d4f2ff534be9783ef31f08859888834604051610a2493929190612426565b60405180910390a350505050505050565b60026020528060005260406000206000915090508060000154908060010160009054906101000a900473ffffffffffffffffffffffffffffffffffffffff16908060020154908060030154908060040154908060050160009054906101000a900460ff16905086565b60006001600083815260200190815260200160002090503373ffffffffffffffffffffffffffffffffffffffff168160010160009054906101000a900473ffffffffffffffffffffffffffffffffffffffff1673ffffffffffffffffffffffffffffffffffffffff1614610b47576040517f08c379a0000000000000000000000000000000000000000000000000000000008152600401610b3e906124a9565b60405180910390fd5b60016002811115610b5b57610b5a611cb7565b5b8160050160009054906101000a900460ff166002811115610b7f57610b7e611cb7565b5b14610bbf576040517f08c379a0000000000000000000000000000000000000000000000000000000008152600401610bb690612515565b60405180910390fd5b60006002600084815260200190815260200160002090508060050160009054906101000a900460ff16610c27576040517f08c379a0000000000000000000000000000000000000000000000000000000008152600401610c1e90612581565b60405180910390fd5b60008160050160006101000a81548160ff02191690831515021790555060028260050160006101000a81548160ff02191690836002811115610c6c57610c6b611cb7565b5b02179055508060010160009054906101000a900473ffffffffffffffffffffffffffffffffffffffff1673ffffffffffffffffffffffffffffffffffffffff166108fc82600401549081150290604051600060405180830381858888f19350505050158015610cdf573d6000803e3d6000fd5b508060010160009054906101000a900473ffffffffffffffffffffffffffffffffffffffff1673ffffffffffffffffffffffffffffffffffffffff16837f8e5451389e92e46e3ab85110d65acde7ac22919df8dd6df438d70b3188cace628360040154604051610d4f919061168e565b60405180910390a3505050565b60006001600085815260200190815260200160002090503373ffffffffffffffffffffffffffffffffffffffff168160010160009054906101000a900473ffffffffffffffffffffffffffffffffffffffff1673ffffffffffffffffffffffffffffffffffffffff1614610e05576040517f08c379a0000000000000000000000000000000000000000000000000000000008152600401610dfc906124a9565b60405180910390fd5b60006002811115610e1957610e18611cb7565b5b8160050160009054906101000a900460ff166002811115610e3d57610e3c611cb7565b5b14610e7d576040517f08c379a0000000000000000000000000000000000000000000000000000000008152600401610e74906125ed565b60405180910390fd5b60008211610ec0576040517f08c379a0000000000000000000000000000000000000000000000000000000008152600401610eb790611df7565b60405180910390fd5b82816003019081610ed1919061209a565b50818160040181905550837f935eeddcdb911de1c078d5ba3c0138d64d317e34145e127419eaa373421d051a60405160405180910390a250505050565b60006001600083815260200190815260200160002090503373ffffffffffffffffffffffffffffffffffffffff168160010160009054906101000a900473ffffffffffffffffffffffffffffffffffffffff1673ffffffffffffffffffffffffffffffffffffffff1614610fb7576040517f08c379a0000000000000000000000000000000000000000000000000000000008152600401610fae906124a9565b60405180910390fd5b60006002811115610fcb57610fca611cb7565b5b8160050160009054906101000a900460ff166002811115610fef57610fee611cb7565b5b1461102f576040517f08c379a000000000000000000000000000000000000000000000000000000000815260040161102690612659565b60405180910390fd5b60028160050160006101000a81548160ff0219169083600281111561105757611056611cb7565b5b0217905550817f8172b0d60cd9c559c5e144ada5c0a01393a852f631c3f66696b0649e5080060360405160405180910390a25050565b60006001600083815260200190815260200160002090503373ffffffffffffffffffffffffffffffffffffffff168160010160009054906101000a900473ffffffffffffffffffffffffffffffffffffffff1673ffffffffffffffffffffffffffffffffffffffff1614611136576040517f08c379a000000000000000000000000000000000000000000000000000000000815260040161112d906124a9565b60405180910390fd5b6001600281111561114a57611149611cb7565b5b8160050160009054906101000a900460ff16600281111561116e5761116d611cb7565b5b146111ae576040517f08c379a00000000000000000000000000000000000000000000000000000000081526004016111a5906126c5565b60405180910390fd5b6000600260008481526020019081526020016000209050806003015442101561120c576040517f08c379a000000000000000000000000000000000000000000000000000000000815260040161120390612731565b60405180910390fd5b60008160050160006101000a81548160ff02191690831515021790555060008260050160006101000a81548160ff0219169083600281111561125157611250611cb7565b5b0217905550827fdf0018bb98956332f02ca39511007ac6497224c99f12b6cb8518a69aa6be5e5b60405160405180910390a2505050565b6060600360008373ffffffffffffffffffffffffffffffffffffffff1673ffffffffffffffffffffffffffffffffffffffff168152602001908152602001600020805480602002602001604051908101604052809291908181526020016000905b828210156113b457838290600052602060002090600602016040518060c0016040529081600082015481526020016001820160009054906101000a900473ffffffffffffffffffffffffffffffffffffffff1673ffffffffffffffffffffffffffffffffffffffff1673ffffffffffffffffffffffffffffffffffffffff1681526020016002820154815260200160038201548152602001600482015481526020016005820160009054906101000a900460ff161515151581525050815260200190600101906112e9565b505050509050919050565b6060600460008373ffffffffffffffffffffffffffffffffffffffff1673ffffffffffffffffffffffffffffffffffffffff168152602001908152602001600020805480602002602001604051908101604052809291908181526020016000905b828210156114eb57838290600052602060002090600602016040518060c0016040529081600082015481526020016001820160009054906101000a900473ffffffffffffffffffffffffffffffffffffffff1673ffffffffffffffffffffffffffffffffffffffff1673ffffffffffffffffffffffffffffffffffffffff1681526020016002820154815260200160038201548152602001600482015481526020016005820160009054906101000a900460ff16151515158152505081526020019060010190611420565b505050509050919050565b60016020528060005260406000206000915090508060000154908060010160009054906101000a900473ffffffffffffffffffffffffffffffffffffffff169080600201805461154590611ebd565b80601f016020809104026020016040519081016040528092919081815260200182805461157190611ebd565b80156115be5780601f10611593576101008083540402835291602001916115be565b820191906000526020600020905b8154815290600101906020018083116115a157829003601f168201915b5050505050908060030180546115d390611ebd565b80601f01602080910402602001604051908101604052809291908181526020018280546115ff90611ebd565b801561164c5780601f106116215761010080835404028352916020019161164c565b820191906000526020600020905b81548152906001019060200180831161162f57829003601f168201915b5050505050908060040154908060050160009054906101000a900460ff16908060060154905087565b6000819050919050565b61168881611675565b82525050565b60006020820190506116a3600083018461167f565b92915050565b6000604051905090565b600080fd5b600080fd5b600080fd5b600080fd5b6000601f19601f8301169050919050565b7f4e487b7100000000000000000000000000000000000000000000000000000000600052604160045260246000fd5b611710826116c7565b810181811067ffffffffffffffff8211171561172f5761172e6116d8565b5b80604052505050565b60006117426116a9565b905061174e8282611707565b919050565b600067ffffffffffffffff82111561176e5761176d6116d8565b5b611777826116c7565b9050602081019050919050565b82818337600083830152505050565b60006117a66117a184611753565b611738565b9050828152602081018484840111156117c2576117c16116c2565b5b6117cd848285611784565b509392505050565b600082601f8301126117ea576117e96116bd565b5b81356117fa848260208601611793565b91505092915050565b61180c81611675565b811461181757600080fd5b50565b60008135905061182981611803565b92915050565b600080600060608486031215611848576118476116b3565b5b600084013567ffffffffffffffff811115611866576118656116b8565b5b611872868287016117d5565b935050602084013567ffffffffffffffff811115611893576118926116b8565b5b61189f868287016117d5565b92505060406118b08682870161181a565b9150509250925092565b6000806000606084860312156118d3576118d26116b3565b5b60006118e18682870161181a565b93505060206118f28682870161181a565b92505060406119038682870161181a565b9150509250925092565b600060208284031215611923576119226116b3565b5b60006119318482850161181a565b91505092915050565b600073ffffffffffffffffffffffffffffffffffffffff82169050919050565b60006119658261193a565b9050919050565b6119758161195a565b82525050565b60008115159050919050565b6119908161197b565b82525050565b600060c0820190506119ab600083018961167f565b6119b8602083018861196c565b6119c5604083018761167f565b6119d2606083018661167f565b6119df608083018561167f565b6119ec60a0830184611987565b979650505050505050565b600080600060608486031215611a1057611a0f6116b3565b5b6000611a1e8682870161181a565b935050602084013567ffffffffffffffff811115611a3f57611a3e6116b8565b5b611a4b868287016117d5565b9250506040611a5c8682870161181a565b9150509250925092565b611a6f8161195a565b8114611a7a57600080fd5b50565b600081359050611a8c81611a66565b92915050565b600060208284031215611aa857611aa76116b3565b5b6000611ab684828501611a7d565b91505092915050565b600081519050919050565b600082825260208201905092915050565b6000819050602082019050919050565b611af481611675565b82525050565b611b038161195a565b82525050565b611b128161197b565b82525050565b60c082016000820151611b2e6000850182611aeb565b506020820151611b416020850182611afa565b506040820151611b546040850182611aeb565b506060820151611b676060850182611aeb565b506080820151611b7a6080850182611aeb565b5060a0820151611b8d60a0850182611b09565b50505050565b6000611b9f8383611b18565b60c08301905092915050565b6000602082019050919050565b6000611bc382611abf565b611bcd8185611aca565b9350611bd883611adb565b8060005b83811015611c09578151611bf08882611b93565b9750611bfb83611bab565b925050600181019050611bdc565b5085935050505092915050565b60006020820190508181036000830152611c308184611bb8565b905092915050565b600081519050919050565b600082825260208201905092915050565b60005b83811015611c72578082015181840152602081019050611c57565b60008484015250505050565b6000611c8982611c38565b611c938185611c43565b9350611ca3818560208601611c54565b611cac816116c7565b840191505092915050565b7f4e487b7100000000000000000000000000000000000000000000000000000000600052602160045260246000fd5b60038110611cf757611cf6611cb7565b5b50565b6000819050611d0882611ce6565b919050565b6000611d1882611cfa565b9050919050565b611d2881611d0d565b82525050565b600060e082019050611d43600083018a61167f565b611d50602083018961196c565b8181036040830152611d628188611c7e565b90508181036060830152611d768187611c7e565b9050611d85608083018661167f565b611d9260a0830185611d1f565b611d9f60c083018461167f565b98975050505050505050565b7f496e76616c696420707269636500000000000000000000000000000000000000600082015250565b6000611de1600d83611c43565b9150611dec82611dab565b602082019050919050565b60006020820190508181036000830152611e1081611dd4565b9050919050565b7f4e487b7100000000000000000000000000000000000000000000000000000000600052601160045260246000fd5b6000611e5182611675565b91507fffffffffffffffffffffffffffffffffffffffffffffffffffffffffffffffff8203611e8357611e82611e17565b5b600182019050919050565b7f4e487b7100000000000000000000000000000000000000000000000000000000600052602260045260246000fd5b60006002820490506001821680611ed557607f821691505b602082108103611ee857611ee7611e8e565b5b50919050565b60008190508160005260206000209050919050565b60006020601f8301049050919050565b600082821b905092915050565b600060088302611f507fffffffffffffffffffffffffffffffffffffffffffffffffffffffffffffffff82611f13565b611f5a8683611f13565b95508019841693508086168417925050509392505050565b6000819050919050565b6000611f97611f92611f8d84611675565b611f72565b611675565b9050919050565b6000819050919050565b611fb183611f7c565b611fc5611fbd82611f9e565b848454611f20565b825550505050565b600090565b611fda611fcd565b611fe5818484611fa8565b505050565b5b8181101561200957611ffe600082611fd2565b600181019050611feb565b5050565b601f82111561204e5761201f81611eee565b61202884611f03565b81016020851015612037578190505b61204b61204385611f03565b830182611fea565b50505b505050565b600082821c905092915050565b600061207160001984600802612053565b1980831691505092915050565b600061208a8383612060565b9150826002028217905092915050565b6120a382611c38565b67ffffffffffffffff8111156120bc576120bb6116d8565b5b6120c68254611ebd565b6120d182828561200d565b600060209050601f83116001811461210457600084156120f2578287015190505b6120fc858261207e565b865550612164565b601f19841661211286611eee565b60005b8281101561213a57848901518255600182019150602085019450602081019050612115565b868310156121575784890151612153601f891682612060565b8355505b6001600288020188555050505b505050505050565b7f436172206e6f7420617661696c61626c65000000000000000000000000000000600082015250565b60006121a2601183611c43565b91506121ad8261216c565b602082019050919050565b600060208201905081810360008301526121d181612195565b9050919050565b7f496e76616c696420646174657300000000000000000000000000000000000000600082015250565b600061220e600d83611c43565b9150612219826121d8565b602082019050919050565b6000602082019050818103600083015261223d81612201565b9050919050565b600061224f82611675565b915061225a83611675565b925082820390508181111561227257612271611e17565b5b92915050565b7f4e487b7100000000000000000000000000000000000000000000000000000000600052601260045260246000fd5b60006122b282611675565b91506122bd83611675565b9250826122cd576122cc612278565b5b828204905092915050565b7f4d696e696d756d20312064617900000000000000000000000000000000000000600082015250565b600061230e600d83611c43565b9150612319826122d8565b602082019050919050565b6000602082019050818103600083015261233d81612301565b9050919050565b600061234f82611675565b915061235a83611675565b925082820261236881611675565b9150828204841483151761237f5761237e611e17565b5b5092915050565b7f496e636f7272656374204554482073656e740000000000000000000000000000600082015250565b60006123bc601283611c43565b91506123c782612386565b602082019050919050565b600060208201905081810360008301526123eb816123af565b9050919050565b60006123fd82611675565b915061240883611675565b92508282019050808211156124205761241f611e17565b5b92915050565b600060608201905061243b600083018661167f565b612448602083018561167f565b612455604083018461167f565b949350505050565b7f4f6e6c79206f776e657200000000000000000000000000000000000000000000600082015250565b6000612493600a83611c43565b915061249e8261245d565b602082019050919050565b600060208201905081810360008301526124c281612486565b9050919050565b7f436172206e6f742072656e746564000000000000000000000000000000000000600082015250565b60006124ff600e83611c43565b915061250a826124c9565b602082019050919050565b6000602082019050818103600083015261252e816124f2565b9050919050565b7f4e6f206163746976652072656e74616c00000000000000000000000000000000600082015250565b600061256b601083611c43565b915061257682612535565b602082019050919050565b6000602082019050818103600083015261259a8161255e565b9050919050565b7f436172206e6f74206564697461626c6500000000000000000000000000000000600082015250565b60006125d7601083611c43565b91506125e2826125a1565b602082019050919050565b60006020820190508181036000830152612606816125ca565b9050919050565b7f4361722063616e6e6f742062652064697361626c656400000000000000000000600082015250565b6000612643601683611c43565b915061264e8261260d565b602082019050919050565b6000602082019050818103600083015261267281612636565b9050919050565b7f4e6f742072656e74656400000000000000000000000000000000000000000000600082015250565b60006126af600a83611c43565b91506126ba82612679565b602082019050919050565b600060208201905081810360008301526126de816126a2565b9050919050565b7f52656e74616c207374696c6c2061637469766500000000000000000000000000600082015250565b600061271b601383611c43565b9150612726826126e5565b602082019050919050565b6000602082019050818103600083015261274a8161270e565b905091905056fea2646970667358221220afd7067385275c6586e1a29aa00fe0267eb1c0f810f779bc2b11723d54e5dd8b64736f6c63430008140033",
  "linkReferences": {},
  "deployedLinkReferences": {}
}